{
  "_format": "hh-sol-artifact-1",
  "contractName": "ROYALTY",
  "sourceName": "contracts/ROYALTY.sol",
  "abi": [
    {
      "inputs": [
        {
          "internalType": "address",
          "name": "_artist",
          "type": "address"
        }
      ],
      "stateMutability": "nonpayable",
      "type": "constructor"
    },
    {
      "inputs": [],
      "name": "ApprovalCallerNotOwnerNorApproved",
      "type": "error"
    },
    {
      "inputs": [],
      "name": "ApprovalQueryForNonexistentToken",
      "type": "error"
    },
    {
      "inputs": [],
      "name": "BalanceQueryForZeroAddress",
      "type": "error"
    },
    {
      "inputs": [],
      "name": "MintERC2309QuantityExceedsLimit",
      "type": "error"
    },
    {
      "inputs": [],
      "name": "MintToZeroAddress",
      "type": "error"
    },
    {
      "inputs": [],
      "name": "MintZeroQuantity",
      "type": "error"
    },
    {
      "inputs": [],
      "name": "OwnerQueryForNonexistentToken",
      "type": "error"
    },
    {
      "inputs": [],
      "name": "OwnershipNotInitializedForExtraData",
      "type": "error"
    },
    {
      "inputs": [],
      "name": "TransferCallerNotOwnerNorApproved",
      "type": "error"
    },
    {
      "inputs": [],
      "name": "TransferFromIncorrectOwner",
      "type": "error"
    },
    {
      "inputs": [],
      "name": "TransferToNonERC721ReceiverImplementer",
      "type": "error"
    },
    {
      "inputs": [],
      "name": "TransferToZeroAddress",
      "type": "error"
    },
    {
      "inputs": [],
      "name": "URIQueryForNonexistentToken",
      "type": "error"
    },
    {
      "anonymous": false,
      "inputs": [
        {
          "indexed": true,
          "internalType": "address",
          "name": "owner",
          "type": "address"
        },
        {
          "indexed": true,
          "internalType": "address",
          "name": "approved",
          "type": "address"
        },
        {
          "indexed": true,
          "internalType": "uint256",
          "name": "tokenId",
          "type": "uint256"
        }
      ],
      "name": "Approval",
      "type": "event"
    },
    {
      "anonymous": false,
      "inputs": [
        {
          "indexed": true,
          "internalType": "address",
          "name": "owner",
          "type": "address"
        },
        {
          "indexed": true,
          "internalType": "address",
          "name": "operator",
          "type": "address"
        },
        {
          "indexed": false,
          "internalType": "bool",
          "name": "approved",
          "type": "bool"
        }
      ],
      "name": "ApprovalForAll",
      "type": "event"
    },
    {
      "anonymous": false,
      "inputs": [
        {
          "indexed": true,
          "internalType": "uint256",
          "name": "fromTokenId",
          "type": "uint256"
        },
        {
          "indexed": false,
          "internalType": "uint256",
          "name": "toTokenId",
          "type": "uint256"
        },
        {
          "indexed": true,
          "internalType": "address",
          "name": "from",
          "type": "address"
        },
        {
          "indexed": true,
          "internalType": "address",
          "name": "to",
          "type": "address"
        }
      ],
      "name": "ConsecutiveTransfer",
      "type": "event"
    },
    {
      "anonymous": false,
      "inputs": [
        {
          "indexed": true,
          "internalType": "address",
          "name": "previousOwner",
          "type": "address"
        },
        {
          "indexed": true,
          "internalType": "address",
          "name": "newOwner",
          "type": "address"
        }
      ],
      "name": "OwnershipTransferred",
      "type": "event"
    },
    {
      "anonymous": false,
      "inputs": [
        {
          "indexed": true,
          "internalType": "address",
          "name": "from",
          "type": "address"
        },
        {
          "indexed": true,
          "internalType": "address",
          "name": "to",
          "type": "address"
        },
        {
          "indexed": true,
          "internalType": "uint256",
          "name": "tokenId",
          "type": "uint256"
        }
      ],
      "name": "Transfer",
      "type": "event"
    },
    {
      "inputs": [],
      "name": "MAX_PUBLIC_MINT",
      "outputs": [
        {
          "internalType": "uint256",
          "name": "",
          "type": "uint256"
        }
      ],
      "stateMutability": "view",
      "type": "function"
    },
    {
      "inputs": [],
      "name": "MAX_WHITELIST_MINT",
      "outputs": [
        {
          "internalType": "uint256",
          "name": "",
          "type": "uint256"
        }
      ],
      "stateMutability": "view",
      "type": "function"
    },
    {
      "inputs": [],
      "name": "PUBLIC_SALE_PRICE",
      "outputs": [
        {
          "internalType": "uint256",
          "name": "",
          "type": "uint256"
        }
      ],
      "stateMutability": "view",
      "type": "function"
    },
    {
      "inputs": [],
      "name": "WHITELIST_SALE_PRICE",
      "outputs": [
        {
          "internalType": "uint256",
          "name": "",
          "type": "uint256"
        }
      ],
      "stateMutability": "view",
      "type": "function"
    },
    {
      "inputs": [
        {
          "internalType": "address",
          "name": "to",
          "type": "address"
        },
        {
          "internalType": "uint256",
          "name": "tokenId",
          "type": "uint256"
        }
      ],
      "name": "approve",
      "outputs": [],
      "stateMutability": "payable",
      "type": "function"
    },
    {
      "inputs": [],
      "name": "artist",
      "outputs": [
        {
          "internalType": "address",
          "name": "",
          "type": "address"
        }
      ],
      "stateMutability": "view",
      "type": "function"
    },
    {
      "inputs": [
        {
          "internalType": "address",
          "name": "owner",
          "type": "address"
        }
      ],
      "name": "balanceOf",
      "outputs": [
        {
          "internalType": "uint256",
          "name": "",
          "type": "uint256"
        }
      ],
      "stateMutability": "view",
      "type": "function"
    },
    {
      "inputs": [],
      "name": "baseExtension",
      "outputs": [
        {
          "internalType": "string",
          "name": "",
          "type": "string"
        }
      ],
      "stateMutability": "view",
      "type": "function"
    },
    {
      "inputs": [],
      "name": "baseURI",
      "outputs": [
        {
          "internalType": "string",
          "name": "",
          "type": "string"
        }
      ],
      "stateMutability": "view",
      "type": "function"
    },
    {
      "inputs": [
        {
          "internalType": "uint256",
          "name": "tokenId",
          "type": "uint256"
        }
      ],
      "name": "getApproved",
      "outputs": [
        {
          "internalType": "address",
          "name": "",
          "type": "address"
        }
      ],
      "stateMutability": "view",
      "type": "function"
    },
    {
      "inputs": [
        {
          "internalType": "uint256",
          "name": "_mintAmount",
          "type": "uint256"
        },
        {
          "internalType": "address",
          "name": "destination",
          "type": "address"
        }
      ],
      "name": "gift",
      "outputs": [],
      "stateMutability": "nonpayable",
      "type": "function"
    },
    {
      "inputs": [
        {
          "internalType": "address",
          "name": "owner",
          "type": "address"
        },
        {
          "internalType": "address",
          "name": "operator",
          "type": "address"
        }
      ],
      "name": "isApprovedForAll",
      "outputs": [
        {
          "internalType": "bool",
          "name": "",
          "type": "bool"
        }
      ],
      "stateMutability": "view",
      "type": "function"
    },
    {
      "inputs": [],
      "name": "maxSupply",
      "outputs": [
        {
          "internalType": "uint256",
          "name": "",
          "type": "uint256"
        }
      ],
      "stateMutability": "view",
      "type": "function"
    },
    {
      "inputs": [],
      "name": "merkleRoot",
      "outputs": [
        {
          "internalType": "bytes32",
          "name": "",
          "type": "bytes32"
        }
      ],
      "stateMutability": "view",
      "type": "function"
    },
    {
      "inputs": [],
      "name": "name",
      "outputs": [
        {
          "internalType": "string",
          "name": "",
          "type": "string"
        }
      ],
      "stateMutability": "view",
      "type": "function"
    },
    {
      "inputs": [],
      "name": "notRevealedUri",
      "outputs": [
        {
          "internalType": "string",
          "name": "",
          "type": "string"
        }
      ],
      "stateMutability": "view",
      "type": "function"
    },
    {
      "inputs": [
        {
          "internalType": "address",
          "name": "owner",
          "type": "address"
        }
      ],
      "name": "numberMinted",
      "outputs": [
        {
          "internalType": "uint256",
          "name": "",
          "type": "uint256"
        }
      ],
      "stateMutability": "view",
      "type": "function"
    },
    {
      "inputs": [],
      "name": "owner",
      "outputs": [
        {
          "internalType": "address",
          "name": "",
          "type": "address"
        }
      ],
      "stateMutability": "view",
      "type": "function"
    },
    {
      "inputs": [
        {
          "internalType": "uint256",
          "name": "tokenId",
          "type": "uint256"
        }
      ],
      "name": "ownerOf",
      "outputs": [
        {
          "internalType": "address",
          "name": "",
          "type": "address"
        }
      ],
      "stateMutability": "view",
      "type": "function"
    },
    {
      "inputs": [
        {
          "internalType": "bool",
          "name": "_state",
          "type": "bool"
        }
      ],
      "name": "pause",
      "outputs": [],
      "stateMutability": "nonpayable",
      "type": "function"
    },
    {
      "inputs": [],
      "name": "paused",
      "outputs": [
        {
          "internalType": "bool",
          "name": "",
          "type": "bool"
        }
      ],
      "stateMutability": "view",
      "type": "function"
    },
    {
      "inputs": [],
      "name": "publicSale",
      "outputs": [
        {
          "internalType": "bool",
          "name": "",
          "type": "bool"
        }
      ],
      "stateMutability": "view",
      "type": "function"
    },
    {
      "inputs": [
        {
          "internalType": "uint256",
          "name": "tokens",
          "type": "uint256"
        }
      ],
      "name": "publicSaleMint",
      "outputs": [],
      "stateMutability": "payable",
      "type": "function"
    },
    {
      "inputs": [],
      "name": "renounceOwnership",
      "outputs": [],
      "stateMutability": "nonpayable",
      "type": "function"
    },
    {
      "inputs": [
        {
          "internalType": "bool",
          "name": "_state",
          "type": "bool"
        }
      ],
      "name": "reveal",
      "outputs": [],
      "stateMutability": "nonpayable",
      "type": "function"
    },
    {
      "inputs": [],
      "name": "revealed",
      "outputs": [
        {
          "internalType": "bool",
          "name": "",
          "type": "bool"
        }
      ],
      "stateMutability": "view",
      "type": "function"
    },
    {
      "inputs": [
        {
          "internalType": "address",
          "name": "from",
          "type": "address"
        },
        {
          "internalType": "address",
          "name": "to",
          "type": "address"
        },
        {
          "internalType": "uint256",
          "name": "tokenId",
          "type": "uint256"
        }
      ],
      "name": "safeTransferFrom",
      "outputs": [],
      "stateMutability": "payable",
      "type": "function"
    },
    {
      "inputs": [
        {
          "internalType": "address",
          "name": "from",
          "type": "address"
        },
        {
          "internalType": "address",
          "name": "to",
          "type": "address"
        },
        {
          "internalType": "uint256",
          "name": "tokenId",
          "type": "uint256"
        },
        {
          "internalType": "bytes",
          "name": "_data",
          "type": "bytes"
        }
      ],
      "name": "safeTransferFrom",
      "outputs": [],
      "stateMutability": "payable",
      "type": "function"
    },
    {
      "inputs": [
        {
          "internalType": "address",
          "name": "operator",
          "type": "address"
        },
        {
          "internalType": "bool",
          "name": "approved",
          "type": "bool"
        }
      ],
      "name": "setApprovalForAll",
      "outputs": [],
      "stateMutability": "nonpayable",
      "type": "function"
    },
    {
      "inputs": [
        {
          "internalType": "string",
          "name": "_newBaseExtension",
          "type": "string"
        }
      ],
      "name": "setBaseExtension",
      "outputs": [],
      "stateMutability": "nonpayable",
      "type": "function"
    },
    {
      "inputs": [
        {
          "internalType": "string",
          "name": "_newBaseURI",
          "type": "string"
        }
      ],
      "name": "setBaseURI",
      "outputs": [],
      "stateMutability": "nonpayable",
      "type": "function"
    },
    {
      "inputs": [
        {
          "internalType": "uint256",
          "name": "_limit",
          "type": "uint256"
        }
      ],
      "name": "setMAX_PUBLIC_MINT",
      "outputs": [],
      "stateMutability": "nonpayable",
      "type": "function"
    },
    {
      "inputs": [
        {
          "internalType": "uint256",
          "name": "_limit",
          "type": "uint256"
        }
      ],
      "name": "setMAX_WHITELIST_MINT",
      "outputs": [],
      "stateMutability": "nonpayable",
      "type": "function"
    },
    {
      "inputs": [
        {
          "internalType": "uint256",
          "name": "_newsupply",
          "type": "uint256"
        }
      ],
      "name": "setMaxsupply",
      "outputs": [],
      "stateMutability": "nonpayable",
      "type": "function"
    },
    {
      "inputs": [
        {
          "internalType": "bytes32",
          "name": "_merkleRoot",
          "type": "bytes32"
        }
      ],
      "name": "setMerkleRoot",
      "outputs": [],
      "stateMutability": "nonpayable",
      "type": "function"
    },
    {
      "inputs": [
        {
          "internalType": "string",
          "name": "_notRevealedURI",
          "type": "string"
        }
      ],
      "name": "setNotRevealedURI",
      "outputs": [],
      "stateMutability": "nonpayable",
      "type": "function"
    },
    {
      "inputs": [
        {
          "internalType": "uint256",
          "name": "_newCost",
          "type": "uint256"
        }
      ],
      "name": "setPUBLIC_SALE_PRICE",
      "outputs": [],
      "stateMutability": "nonpayable",
      "type": "function"
    },
    {
      "inputs": [
        {
          "internalType": "uint256",
          "name": "_newCost",
          "type": "uint256"
        }
      ],
      "name": "setWHITELIST_SALE_PRICE",
      "outputs": [],
      "stateMutability": "nonpayable",
      "type": "function"
    },
    {
      "inputs": [
        {
          "internalType": "bytes4",
          "name": "interfaceId",
          "type": "bytes4"
        }
      ],
      "name": "supportsInterface",
      "outputs": [
        {
          "internalType": "bool",
          "name": "",
          "type": "bool"
        }
      ],
      "stateMutability": "view",
      "type": "function"
    },
    {
      "inputs": [],
      "name": "symbol",
      "outputs": [
        {
          "internalType": "string",
          "name": "",
          "type": "string"
        }
      ],
      "stateMutability": "view",
      "type": "function"
    },
    {
      "inputs": [],
      "name": "teamMint",
      "outputs": [],
      "stateMutability": "nonpayable",
      "type": "function"
    },
    {
      "inputs": [],
      "name": "teamMinted",
      "outputs": [
        {
          "internalType": "bool",
          "name": "",
          "type": "bool"
        }
      ],
      "stateMutability": "view",
      "type": "function"
    },
    {
      "inputs": [
        {
          "internalType": "bool",
          "name": "_state",
          "type": "bool"
        }
      ],
      "name": "toggleTeamMinted",
      "outputs": [],
      "stateMutability": "nonpayable",
      "type": "function"
    },
    {
      "inputs": [
        {
          "internalType": "bool",
          "name": "_state",
          "type": "bool"
        }
      ],
      "name": "toggleWhiteListSale",
      "outputs": [],
      "stateMutability": "nonpayable",
      "type": "function"
    },
    {
      "inputs": [
        {
          "internalType": "bool",
          "name": "_state",
          "type": "bool"
        }
      ],
      "name": "togglepublicSale",
      "outputs": [],
      "stateMutability": "nonpayable",
      "type": "function"
    },
    {
      "inputs": [
        {
          "internalType": "uint256",
          "name": "tokenId",
          "type": "uint256"
        }
      ],
      "name": "tokenURI",
      "outputs": [
        {
          "internalType": "string",
          "name": "",
          "type": "string"
        }
      ],
      "stateMutability": "view",
      "type": "function"
    },
    {
      "inputs": [],
      "name": "totalSupply",
      "outputs": [
        {
          "internalType": "uint256",
          "name": "",
          "type": "uint256"
        }
      ],
      "stateMutability": "view",
      "type": "function"
    },
    {
      "inputs": [
        {
          "internalType": "address",
          "name": "from",
          "type": "address"
        },
        {
          "internalType": "address",
          "name": "to",
          "type": "address"
        },
        {
          "internalType": "uint256",
          "name": "tokenId",
          "type": "uint256"
        }
      ],
      "name": "transferFrom",
      "outputs": [],
      "stateMutability": "payable",
      "type": "function"
    },
    {
      "inputs": [
        {
          "internalType": "address",
          "name": "newOwner",
          "type": "address"
        }
      ],
      "name": "transferOwnership",
      "outputs": [],
      "stateMutability": "nonpayable",
      "type": "function"
    },
    {
      "inputs": [],
      "name": "whiteListSale",
      "outputs": [
        {
          "internalType": "bool",
          "name": "",
          "type": "bool"
        }
      ],
      "stateMutability": "view",
      "type": "function"
    },
    {
      "inputs": [
        {
          "internalType": "uint256",
          "name": "tokens",
          "type": "uint256"
        },
        {
          "internalType": "bytes32[]",
          "name": "merkleProof",
          "type": "bytes32[]"
        }
      ],
      "name": "whitelistMint",
      "outputs": [],
      "stateMutability": "payable",
      "type": "function"
    },
    {
      "inputs": [],
      "name": "withdraw",
      "outputs": [],
      "stateMutability": "nonpayable",
      "type": "function"
    }
  ],
  "bytecode": "0x60806040526040518060400160405280600581526020017f2e6a736f6e000000000000000000000000000000000000000000000000000000815250600b9080519060200190620000519291906200031f565b506104b0600d55600a600e55600a600f5566038d7ea4c680006010556509184e72a000601155600a6013556000601460006101000a81548160ff0219169083151502179055506000601460016101000a81548160ff0219169083151502179055506001601460026101000a81548160ff0219169083151502179055506000601460036101000a81548160ff0219169083151502179055506000801b601555348015620000fc57600080fd5b5060405162004cea38038062004cea833981810160405281019062000122919062000439565b6040518060400160405280601581526020017f3132204b6e696768747320436f6c6c65637469766500000000000000000000008152506040518060400160405280600381526020017f544b4300000000000000000000000000000000000000000000000000000000008152508160029080519060200190620001a69291906200031f565b508060039080519060200190620001bf9291906200031f565b50620001d06200024860201b60201c565b6000819055505050620001f8620001ec6200025160201b60201c565b6200025960201b60201c565b600160098190555080601260006101000a81548173ffffffffffffffffffffffffffffffffffffffff021916908373ffffffffffffffffffffffffffffffffffffffff16021790555050620004d0565b60006001905090565b600033905090565b6000600860009054906101000a900473ffffffffffffffffffffffffffffffffffffffff16905081600860006101000a81548173ffffffffffffffffffffffffffffffffffffffff021916908373ffffffffffffffffffffffffffffffffffffffff1602179055508173ffffffffffffffffffffffffffffffffffffffff168173ffffffffffffffffffffffffffffffffffffffff167f8be0079c531659141344cd1fd0a4f28419497f9722a3daafe3b4186f6b6457e060405160405180910390a35050565b8280546200032d906200049a565b90600052602060002090601f0160209004810192826200035157600085556200039d565b82601f106200036c57805160ff19168380011785556200039d565b828001600101855582156200039d579182015b828111156200039c5782518255916020019190600101906200037f565b5b509050620003ac9190620003b0565b5090565b5b80821115620003cb576000816000905550600101620003b1565b5090565b600080fd5b600073ffffffffffffffffffffffffffffffffffffffff82169050919050565b60006200040182620003d4565b9050919050565b6200041381620003f4565b81146200041f57600080fd5b50565b600081519050620004338162000408565b92915050565b600060208284031215620004525762000451620003cf565b5b6000620004628482850162000422565b91505092915050565b7f4e487b7100000000000000000000000000000000000000000000000000000000600052602260045260246000fd5b60006002820490506001821680620004b357607f821691505b60208210811415620004ca57620004c96200046b565b5b50919050565b61480a80620004e06000396000f3fe6080604052600436106102ff5760003560e01c80637cb6475911610190578063c6682862116100dc578063e8b5498d11610095578063f2c4ce1e1161006f578063f2c4ce1e14610ae2578063f2fde38b14610b0b578063f3257cdd14610b34578063f3cedb8a14610b5d576102ff565b8063e8b5498d14610a51578063e985e9c514610a7c578063ed5d432914610ab9576102ff565b8063c66828621461093c578063c87b56dd14610967578063d2cab056146109a4578063d5abeb01146109c0578063da3ef23f146109eb578063dc33e68114610a14576102ff565b8063a22cb46511610149578063b88d4fde11610123578063b88d4fde146108b3578063ba7a86b8146108cf578063bc912e1a146108e6578063c08dfd3c14610911576102ff565b8063a22cb46514610845578063b3ab66b01461086e578063b724753a1461088a576102ff565b80637cb647591461074957806383a076be1461077257806386a173ee1461079b5780638da5cb5b146107c6578063940cd05b146107f157806395d89b411461081a576102ff565b80633ccfd60b1161024f57806362264f701161020857806365f13097116101e257806365f130971461069f5780636c0360eb146106ca57806370a08231146106f5578063715018a614610732576102ff565b806362264f70146106105780636352211e14610639578063659d968f14610676576102ff565b80633ccfd60b1461053357806342842e0e1461054a57806343bc161214610566578063518302271461059157806355f804b3146105bc5780635c975abb146105e5576102ff565b8063095ea7b3116102bc57806318160ddd1161029657806318160ddd1461049657806323b872dd146104c15780632eb4a7ab146104dd57806333bc1c5c14610508576102ff565b8063095ea7b3146104285780631201357d14610444578063149835a01461046d576102ff565b806301ffc9a71461030457806302329a291461034157806306fdde031461036a57806307e89ec014610395578063081812fc146103c0578063081c8c44146103fd575b600080fd5b34801561031057600080fd5b5061032b600480360381019061032691906132f6565b610b86565b604051610338919061333e565b60405180910390f35b34801561034d57600080fd5b5061036860048036038101906103639190613385565b610c18565b005b34801561037657600080fd5b5061037f610c3d565b60405161038c919061344b565b60405180910390f35b3480156103a157600080fd5b506103aa610ccf565b6040516103b79190613486565b60405180910390f35b3480156103cc57600080fd5b506103e760048036038101906103e291906134cd565b610cd5565b6040516103f4919061353b565b60405180910390f35b34801561040957600080fd5b50610412610d54565b60405161041f919061344b565b60405180910390f35b610442600480360381019061043d9190613582565b610de2565b005b34801561045057600080fd5b5061046b600480360381019061046691906134cd565b610f26565b005b34801561047957600080fd5b50610494600480360381019061048f91906134cd565b610f38565b005b3480156104a257600080fd5b506104ab610f4a565b6040516104b89190613486565b60405180910390f35b6104db60048036038101906104d691906135c2565b610f61565b005b3480156104e957600080fd5b506104f2611025565b6040516104ff919061362e565b60405180910390f35b34801561051457600080fd5b5061051d61102b565b60405161052a919061333e565b60405180910390f35b34801561053f57600080fd5b5061054861103e565b005b610564600480360381019061055f91906135c2565b611096565b005b34801561057257600080fd5b5061057b61116a565b604051610588919061353b565b60405180910390f35b34801561059d57600080fd5b506105a6611190565b6040516105b3919061333e565b60405180910390f35b3480156105c857600080fd5b506105e360048036038101906105de919061377e565b6111a3565b005b3480156105f157600080fd5b506105fa6111c5565b604051610607919061333e565b60405180910390f35b34801561061c57600080fd5b5061063760048036038101906106329190613385565b6111d8565b005b34801561064557600080fd5b50610660600480360381019061065b91906134cd565b6111fd565b60405161066d919061353b565b60405180910390f35b34801561068257600080fd5b5061069d600480360381019061069891906134cd565b61120f565b005b3480156106ab57600080fd5b506106b4611221565b6040516106c19190613486565b60405180910390f35b3480156106d657600080fd5b506106df611227565b6040516106ec919061344b565b60405180910390f35b34801561070157600080fd5b5061071c600480360381019061071791906137c7565b6112b5565b6040516107299190613486565b60405180910390f35b34801561073e57600080fd5b5061074761136e565b005b34801561075557600080fd5b50610770600480360381019061076b9190613820565b611382565b005b34801561077e57600080fd5b506107996004803603810190610794919061384d565b611394565b005b3480156107a757600080fd5b506107b061145a565b6040516107bd919061333e565b60405180910390f35b3480156107d257600080fd5b506107db61146d565b6040516107e8919061353b565b60405180910390f35b3480156107fd57600080fd5b5061081860048036038101906108139190613385565b611497565b005b34801561082657600080fd5b5061082f6114bc565b60405161083c919061344b565b60405180910390f35b34801561085157600080fd5b5061086c6004803603810190610867919061388d565b61154e565b005b610888600480360381019061088391906134cd565b611659565b005b34801561089657600080fd5b506108b160048036038101906108ac91906134cd565b61196b565b005b6108cd60048036038101906108c8919061396e565b61197d565b005b3480156108db57600080fd5b506108e4611a43565b005b3480156108f257600080fd5b506108fb611ac3565b6040516109089190613486565b60405180910390f35b34801561091d57600080fd5b50610926611ac9565b6040516109339190613486565b60405180910390f35b34801561094857600080fd5b50610951611acf565b60405161095e919061344b565b60405180910390f35b34801561097357600080fd5b5061098e600480360381019061098991906134cd565b611b5d565b60405161099b919061344b565b60405180910390f35b6109be60048036038101906109b99190613a51565b611cb6565b005b3480156109cc57600080fd5b506109d561207d565b6040516109e29190613486565b60405180910390f35b3480156109f757600080fd5b50610a126004803603810190610a0d919061377e565b612083565b005b348015610a2057600080fd5b50610a3b6004803603810190610a3691906137c7565b6120a5565b604051610a489190613486565b60405180910390f35b348015610a5d57600080fd5b50610a666120b7565b604051610a73919061333e565b60405180910390f35b348015610a8857600080fd5b50610aa36004803603810190610a9e9190613ab1565b6120ca565b604051610ab0919061333e565b60405180910390f35b348015610ac557600080fd5b50610ae06004803603810190610adb9190613385565b61215e565b005b348015610aee57600080fd5b50610b096004803603810190610b04919061377e565b612183565b005b348015610b1757600080fd5b50610b326004803603810190610b2d91906137c7565b6121a5565b005b348015610b4057600080fd5b50610b5b6004803603810190610b569190613385565b612229565b005b348015610b6957600080fd5b50610b846004803603810190610b7f91906134cd565b61224e565b005b60006301ffc9a760e01b827bffffffffffffffffffffffffffffffffffffffffffffffffffffffff19161480610be157506380ac58cd60e01b827bffffffffffffffffffffffffffffffffffffffffffffffffffffffff1916145b80610c115750635b5e139f60e01b827bffffffffffffffffffffffffffffffffffffffffffffffffffffffff1916145b9050919050565b610c20612260565b80601460006101000a81548160ff02191690831515021790555050565b606060028054610c4c90613b20565b80601f0160208091040260200160405190810160405280929190818152602001828054610c7890613b20565b8015610cc55780601f10610c9a57610100808354040283529160200191610cc5565b820191906000526020600020905b815481529060010190602001808311610ca857829003601f168201915b5050505050905090565b60105481565b6000610ce0826122de565b610d16576040517fcf4700e400000000000000000000000000000000000000000000000000000000815260040160405180910390fd5b6006600083815260200190815260200160002060000160009054906101000a900473ffffffffffffffffffffffffffffffffffffffff169050919050565b600c8054610d6190613b20565b80601f0160208091040260200160405190810160405280929190818152602001828054610d8d90613b20565b8015610dda5780601f10610daf57610100808354040283529160200191610dda565b820191906000526020600020905b815481529060010190602001808311610dbd57829003601f168201915b505050505081565b6000610ded826111fd565b90508073ffffffffffffffffffffffffffffffffffffffff16610e0e61233d565b73ffffffffffffffffffffffffffffffffffffffff1614610e7157610e3a81610e3561233d565b6120ca565b610e70576040517fcfb3b94200000000000000000000000000000000000000000000000000000000815260040160405180910390fd5b5b826006600084815260200190815260200160002060000160006101000a81548173ffffffffffffffffffffffffffffffffffffffff021916908373ffffffffffffffffffffffffffffffffffffffff160217905550818373ffffffffffffffffffffffffffffffffffffffff168273ffffffffffffffffffffffffffffffffffffffff167f8c5be1e5ebec7d5bd14f71427d1e84f3dd0314c0f7b2291e5b200ac8c7c3b92560405160405180910390a4505050565b610f2e612260565b8060118190555050565b610f40612260565b80600d8190555050565b6000610f54612345565b6001546000540303905090565b6000341115611015576000606460135434610f7c9190613b81565b610f869190613c0a565b9050610f918161234e565b60008473ffffffffffffffffffffffffffffffffffffffff168234610fb69190613c3b565b604051610fc290613ca0565b60006040518083038185875af1925050503d8060008114610fff576040519150601f19603f3d011682016040523d82523d6000602084013e611004565b606091505b505090508061101257600080fd5b50505b6110208383836123ea565b505050565b60155481565b601460039054906101000a900460ff1681565b611046612260565b61104e61146d565b73ffffffffffffffffffffffffffffffffffffffff166108fc479081150290604051600060405180830381858888f19350505050158015611093573d6000803e3d6000fd5b50565b600034111561114a5760006064601354346110b19190613b81565b6110bb9190613c0a565b90506110c68161234e565b60008473ffffffffffffffffffffffffffffffffffffffff1682346110eb9190613c3b565b6040516110f790613ca0565b60006040518083038185875af1925050503d8060008114611134576040519150601f19603f3d011682016040523d82523d6000602084013e611139565b606091505b505090508061114757600080fd5b50505b6111658383836040518060200160405280600081525061270f565b505050565b601260009054906101000a900473ffffffffffffffffffffffffffffffffffffffff1681565b601460019054906101000a900460ff1681565b6111ab612260565b80600a90805190602001906111c19291906131e7565b5050565b601460009054906101000a900460ff1681565b6111e0612260565b80601460026101000a81548160ff02191690831515021790555050565b600061120882612782565b9050919050565b611217612260565b80600e8190555050565b600e5481565b600a805461123490613b20565b80601f016020809104026020016040519081016040528092919081815260200182805461126090613b20565b80156112ad5780601f10611282576101008083540402835291602001916112ad565b820191906000526020600020905b81548152906001019060200180831161129057829003601f168201915b505050505081565b60008073ffffffffffffffffffffffffffffffffffffffff168273ffffffffffffffffffffffffffffffffffffffff16141561131d576040517f8f4eb60400000000000000000000000000000000000000000000000000000000815260040160405180910390fd5b67ffffffffffffffff600560008473ffffffffffffffffffffffffffffffffffffffff1673ffffffffffffffffffffffffffffffffffffffff16815260200190815260200160002054169050919050565b611376612260565b6113806000612850565b565b61138a612260565b8060158190555050565b61139c612260565b6113a4612916565b600082116113e7576040517f08c379a00000000000000000000000000000000000000000000000000000000081526004016113de90613d01565b60405180910390fd5b60006113f1610f4a565b9050600d5483826114029190613d21565b1115611443576040517f08c379a000000000000000000000000000000000000000000000000000000000815260040161143a90613dc3565b60405180910390fd5b61144d8284612966565b50611456612984565b5050565b601460029054906101000a900460ff1681565b6000600860009054906101000a900473ffffffffffffffffffffffffffffffffffffffff16905090565b61149f612260565b80601460016101000a81548160ff02191690831515021790555050565b6060600380546114cb90613b20565b80601f01602080910402602001604051908101604052809291908181526020018280546114f790613b20565b80156115445780601f1061151957610100808354040283529160200191611544565b820191906000526020600020905b81548152906001019060200180831161152757829003601f168201915b5050505050905090565b806007600061155b61233d565b73ffffffffffffffffffffffffffffffffffffffff1673ffffffffffffffffffffffffffffffffffffffff16815260200190815260200160002060008473ffffffffffffffffffffffffffffffffffffffff1673ffffffffffffffffffffffffffffffffffffffff16815260200190815260200160002060006101000a81548160ff0219169083151502179055508173ffffffffffffffffffffffffffffffffffffffff1661160861233d565b73ffffffffffffffffffffffffffffffffffffffff167f17307eab39ab6107e8899845ad3d59bd9653f200f220920489ca2b5937696c318360405161164d919061333e565b60405180910390a35050565b611661612916565b601460009054906101000a900460ff16156116b1576040517f08c379a00000000000000000000000000000000000000000000000000000000081526004016116a890613e2f565b60405180910390fd5b601460039054906101000a900460ff16611700576040517f08c379a00000000000000000000000000000000000000000000000000000000081526004016116f790613e9b565b60405180910390fd5b600061170a610f4a565b90506000821161174f576040517f08c379a000000000000000000000000000000000000000000000000000000000815260040161174690613d01565b60405180910390fd5b600e54821115611794576040517f08c379a000000000000000000000000000000000000000000000000000000000815260040161178b90613f07565b60405180910390fd5b600d5482826117a39190613d21565b11156117e4576040517f08c379a00000000000000000000000000000000000000000000000000000000081526004016117db90613f73565b60405180910390fd5b600e54826117f86117f361298e565b612996565b6118029190613d21565b1115611843576040517f08c379a000000000000000000000000000000000000000000000000000000000815260040161183a90613fdf565b60405180910390fd5b816010546118519190613b81565b341015611893576040517f08c379a000000000000000000000000000000000000000000000000000000000815260040161188a9061404b565b60405180910390fd5b600034111561194e5760006064601354346118ae9190613b81565b6118b89190613c0a565b90506118c38161234e565b60006118cd61146d565b73ffffffffffffffffffffffffffffffffffffffff1682346118ef9190613c3b565b6040516118fb90613ca0565b60006040518083038185875af1925050503d8060008114611938576040519150601f19603f3d011682016040523d82523d6000602084013e61193d565b606091505b505090508061194b57600080fd5b50505b61195f61195961298e565b83612966565b50611968612984565b50565b611973612260565b80600f8190555050565b6000341115611a315760006064601354346119989190613b81565b6119a29190613c0a565b90506119ad8161234e565b60008573ffffffffffffffffffffffffffffffffffffffff1682346119d29190613c3b565b6040516119de90613ca0565b60006040518083038185875af1925050503d8060008114611a1b576040519150601f19603f3d011682016040523d82523d6000602084013e611a20565b606091505b5050905080611a2e57600080fd5b50505b611a3d8484848461270f565b50505050565b611a4b612260565b601460049054906101000a900460ff1615611a9b576040517f08c379a0000000000000000000000000000000000000000000000000000000008152600401611a92906140dd565b60405180910390fd5b6001601460046101000a81548160ff021916908315150217905550611ac1336014612966565b565b60115481565b600f5481565b600b8054611adc90613b20565b80601f0160208091040260200160405190810160405280929190818152602001828054611b0890613b20565b8015611b555780601f10611b2a57610100808354040283529160200191611b55565b820191906000526020600020905b815481529060010190602001808311611b3857829003601f168201915b505050505081565b6060611b68826122de565b611ba7576040517f08c379a0000000000000000000000000000000000000000000000000000000008152600401611b9e9061416f565b60405180910390fd5b60001515601460019054906101000a900460ff1615151415611c5557600c8054611bd090613b20565b80601f0160208091040260200160405190810160405280929190818152602001828054611bfc90613b20565b8015611c495780601f10611c1e57610100808354040283529160200191611c49565b820191906000526020600020905b815481529060010190602001808311611c2c57829003601f168201915b50505050509050611cb1565b6000611c5f6129ed565b90506000815111611c7f5760405180602001604052806000815250611cad565b80611c8984612a7f565b600b604051602001611c9d9392919061425f565b6040516020818303038152906040525b9150505b919050565b611cbe612916565b601460009054906101000a900460ff1615611d0e576040517f08c379a0000000000000000000000000000000000000000000000000000000008152600401611d0590613e2f565b60405180910390fd5b601460029054906101000a900460ff16611d5d576040517f08c379a0000000000000000000000000000000000000000000000000000000008152600401611d54906142dc565b60405180910390fd5b611dd1828280806020026020016040519081016040528093929190818152602001838360200280828437600081840152601f19601f8201169050808301925050505050505060155433604051602001611db69190614344565b60405160208183030381529060405280519060200120612b57565b611e10576040517f08c379a0000000000000000000000000000000000000000000000000000000008152600401611e07906143ab565b60405180910390fd5b6000611e1a610f4a565b9050600f5484611e30611e2b61298e565b612996565b611e3a9190613d21565b1115611e7b576040517f08c379a0000000000000000000000000000000000000000000000000000000008152600401611e7290614417565b60405180910390fd5b60008411611ebe576040517f08c379a0000000000000000000000000000000000000000000000000000000008152600401611eb590613d01565b60405180910390fd5b600d548482611ecd9190613d21565b1115611f0e576040517f08c379a0000000000000000000000000000000000000000000000000000000008152600401611f0590613f73565b60405180910390fd5b600f54841115611f53576040517f08c379a0000000000000000000000000000000000000000000000000000000008152600401611f4a90614483565b60405180910390fd5b83601154611f619190613b81565b341015611fa3576040517f08c379a0000000000000000000000000000000000000000000000000000000008152600401611f9a906144ef565b60405180910390fd5b600034111561205e576000606460135434611fbe9190613b81565b611fc89190613c0a565b9050611fd38161234e565b6000611fdd61146d565b73ffffffffffffffffffffffffffffffffffffffff168234611fff9190613c3b565b60405161200b90613ca0565b60006040518083038185875af1925050503d8060008114612048576040519150601f19603f3d011682016040523d82523d6000602084013e61204d565b606091505b505090508061205b57600080fd5b50505b61206f61206961298e565b85612966565b50612078612984565b505050565b600d5481565b61208b612260565b80600b90805190602001906120a19291906131e7565b5050565b60006120b082612996565b9050919050565b601460049054906101000a900460ff1681565b6000600760008473ffffffffffffffffffffffffffffffffffffffff1673ffffffffffffffffffffffffffffffffffffffff16815260200190815260200160002060008373ffffffffffffffffffffffffffffffffffffffff1673ffffffffffffffffffffffffffffffffffffffff16815260200190815260200160002060009054906101000a900460ff16905092915050565b612166612260565b80601460046101000a81548160ff02191690831515021790555050565b61218b612260565b80600c90805190602001906121a19291906131e7565b5050565b6121ad612260565b600073ffffffffffffffffffffffffffffffffffffffff168173ffffffffffffffffffffffffffffffffffffffff16141561221d576040517f08c379a000000000000000000000000000000000000000000000000000000000815260040161221490614581565b60405180910390fd5b61222681612850565b50565b612231612260565b80601460036101000a81548160ff02191690831515021790555050565b612256612260565b8060108190555050565b61226861298e565b73ffffffffffffffffffffffffffffffffffffffff1661228661146d565b73ffffffffffffffffffffffffffffffffffffffff16146122dc576040517f08c379a00000000000000000000000000000000000000000000000000000000081526004016122d3906145ed565b60405180910390fd5b565b6000816122e9612345565b111580156122f8575060005482105b8015612336575060007c0100000000000000000000000000000000000000000000000000000000600460008581526020019081526020016000205416145b9050919050565b600033905090565b60006001905090565b6000601260009054906101000a900473ffffffffffffffffffffffffffffffffffffffff1673ffffffffffffffffffffffffffffffffffffffff168260405161239690613ca0565b60006040518083038185875af1925050503d80600081146123d3576040519150601f19603f3d011682016040523d82523d6000602084013e6123d8565b606091505b50509050806123e657600080fd5b5050565b60006123f582612782565b90508373ffffffffffffffffffffffffffffffffffffffff168173ffffffffffffffffffffffffffffffffffffffff161461245c576040517fa114810000000000000000000000000000000000000000000000000000000000815260040160405180910390fd5b60008061246884612b6e565b9150915061247e818761247961233d565b612b95565b6124ca576124938661248e61233d565b6120ca565b6124c9576040517f59c896be00000000000000000000000000000000000000000000000000000000815260040160405180910390fd5b5b600073ffffffffffffffffffffffffffffffffffffffff168573ffffffffffffffffffffffffffffffffffffffff161415612531576040517fea553b3400000000000000000000000000000000000000000000000000000000815260040160405180910390fd5b61253e8686866001612bd9565b801561254957600082555b600560008773ffffffffffffffffffffffffffffffffffffffff1673ffffffffffffffffffffffffffffffffffffffff168152602001908152602001600020600081546001900391905081905550600560008673ffffffffffffffffffffffffffffffffffffffff1673ffffffffffffffffffffffffffffffffffffffff1681526020019081526020016000206000815460010191905081905550612617856125f3888887612bdf565b7c020000000000000000000000000000000000000000000000000000000017612c07565b600460008681526020019081526020016000208190555060007c02000000000000000000000000000000000000000000000000000000008416141561269f57600060018501905060006004600083815260200190815260200160002054141561269d57600054811461269c578360046000838152602001908152602001600020819055505b5b505b838573ffffffffffffffffffffffffffffffffffffffff168773ffffffffffffffffffffffffffffffffffffffff167fddf252ad1be2c89b69c2b068fc378daa952ba7f163c4a11628f55a4df523b3ef60405160405180910390a46127078686866001612c32565b505050505050565b61271a848484610f61565b60008373ffffffffffffffffffffffffffffffffffffffff163b1461277c5761274584848484612c38565b61277b576040517fd1a57ed600000000000000000000000000000000000000000000000000000000815260040160405180910390fd5b5b50505050565b60008082905080612791612345565b11612819576000548110156128185760006004600083815260200190815260200160002054905060007c010000000000000000000000000000000000000000000000000000000082161415612816575b600081141561280c5760046000836001900393508381526020019081526020016000205490506127e1565b809250505061284b565b505b5b6040517fdf2d9b4200000000000000000000000000000000000000000000000000000000815260040160405180910390fd5b919050565b6000600860009054906101000a900473ffffffffffffffffffffffffffffffffffffffff16905081600860006101000a81548173ffffffffffffffffffffffffffffffffffffffff021916908373ffffffffffffffffffffffffffffffffffffffff1602179055508173ffffffffffffffffffffffffffffffffffffffff168173ffffffffffffffffffffffffffffffffffffffff167f8be0079c531659141344cd1fd0a4f28419497f9722a3daafe3b4186f6b6457e060405160405180910390a35050565b6002600954141561295c576040517f08c379a000000000000000000000000000000000000000000000000000000000815260040161295390614659565b60405180910390fd5b6002600981905550565b612980828260405180602001604052806000815250612d89565b5050565b6001600981905550565b600033905090565b600067ffffffffffffffff6040600560008573ffffffffffffffffffffffffffffffffffffffff1673ffffffffffffffffffffffffffffffffffffffff16815260200190815260200160002054901c169050919050565b6060600a80546129fc90613b20565b80601f0160208091040260200160405190810160405280929190818152602001828054612a2890613b20565b8015612a755780601f10612a4a57610100808354040283529160200191612a75565b820191906000526020600020905b815481529060010190602001808311612a5857829003601f168201915b5050505050905090565b606060006001612a8e84612e26565b01905060008167ffffffffffffffff811115612aad57612aac613653565b5b6040519080825280601f01601f191660200182016040528015612adf5781602001600182028036833780820191505090505b509050600082602001820190505b600115612b4c578080600190039150507f3031323334353637383961626364656600000000000000000000000000000000600a86061a8153600a8581612b3657612b35613bdb565b5b0494506000851415612b4757612b4c565b612aed565b819350505050919050565b600082612b648584612f79565b1490509392505050565b60008060006006600085815260200190815260200160002090508092508254915050915091565b600073ffffffffffffffffffffffffffffffffffffffff8316925073ffffffffffffffffffffffffffffffffffffffff821691508382148383141790509392505050565b50505050565b60008060e883901c905060e8612bf6868684612fcf565b62ffffff16901b9150509392505050565b600073ffffffffffffffffffffffffffffffffffffffff83169250814260a01b178317905092915050565b50505050565b60008373ffffffffffffffffffffffffffffffffffffffff1663150b7a02612c5e61233d565b8786866040518563ffffffff1660e01b8152600401612c8094939291906146ce565b6020604051808303816000875af1925050508015612cbc57506040513d601f19601f82011682018060405250810190612cb9919061472f565b60015b612d36573d8060008114612cec576040519150601f19603f3d011682016040523d82523d6000602084013e612cf1565b606091505b50600081511415612d2e576040517fd1a57ed600000000000000000000000000000000000000000000000000000000815260040160405180910390fd5b805181602001fd5b63150b7a0260e01b7bffffffffffffffffffffffffffffffffffffffffffffffffffffffff1916817bffffffffffffffffffffffffffffffffffffffffffffffffffffffff191614915050949350505050565b612d938383612fd8565b60008373ffffffffffffffffffffffffffffffffffffffff163b14612e2157600080549050600083820390505b612dd36000868380600101945086612c38565b612e09576040517fd1a57ed600000000000000000000000000000000000000000000000000000000815260040160405180910390fd5b818110612dc0578160005414612e1e57600080fd5b50505b505050565b600080600090507a184f03e93ff9f4daa797ed6e38ed64bf6a1f0100000000000000008310612e84577a184f03e93ff9f4daa797ed6e38ed64bf6a1f0100000000000000008381612e7a57612e79613bdb565b5b0492506040810190505b6d04ee2d6d415b85acef81000000008310612ec1576d04ee2d6d415b85acef81000000008381612eb757612eb6613bdb565b5b0492506020810190505b662386f26fc100008310612ef057662386f26fc100008381612ee657612ee5613bdb565b5b0492506010810190505b6305f5e1008310612f19576305f5e1008381612f0f57612f0e613bdb565b5b0492506008810190505b6127108310612f3e576127108381612f3457612f33613bdb565b5b0492506004810190505b60648310612f615760648381612f5757612f56613bdb565b5b0492506002810190505b600a8310612f70576001810190505b80915050919050565b60008082905060005b8451811015612fc457612faf82868381518110612fa257612fa161475c565b5b6020026020010151613195565b91508080612fbc9061478b565b915050612f82565b508091505092915050565b60009392505050565b6000805490506000821415613019576040517fb562e8dd00000000000000000000000000000000000000000000000000000000815260040160405180910390fd5b6130266000848385612bd9565b600160406001901b178202600560008573ffffffffffffffffffffffffffffffffffffffff1673ffffffffffffffffffffffffffffffffffffffff1681526020019081526020016000206000828254019250508190555061309d8361308e6000866000612bdf565b613097856131c0565b17612c07565b6004600083815260200190815260200160002081905550600080838301905073ffffffffffffffffffffffffffffffffffffffff85169150828260007fddf252ad1be2c89b69c2b068fc378daa952ba7f163c4a11628f55a4df523b3ef600080a4600183015b81811461313e57808360007fddf252ad1be2c89b69c2b068fc378daa952ba7f163c4a11628f55a4df523b3ef600080a4600181019050613103565b50600082141561317a576040517f2e07630000000000000000000000000000000000000000000000000000000000815260040160405180910390fd5b8060008190555050506131906000848385612c32565b505050565b60008183106131ad576131a882846131d0565b6131b8565b6131b783836131d0565b5b905092915050565b60006001821460e11b9050919050565b600082600052816020526040600020905092915050565b8280546131f390613b20565b90600052602060002090601f016020900481019282613215576000855561325c565b82601f1061322e57805160ff191683800117855561325c565b8280016001018555821561325c579182015b8281111561325b578251825591602001919060010190613240565b5b509050613269919061326d565b5090565b5b8082111561328657600081600090555060010161326e565b5090565b6000604051905090565b600080fd5b600080fd5b60007fffffffff0000000000000000000000000000000000000000000000000000000082169050919050565b6132d38161329e565b81146132de57600080fd5b50565b6000813590506132f0816132ca565b92915050565b60006020828403121561330c5761330b613294565b5b600061331a848285016132e1565b91505092915050565b60008115159050919050565b61333881613323565b82525050565b6000602082019050613353600083018461332f565b92915050565b61336281613323565b811461336d57600080fd5b50565b60008135905061337f81613359565b92915050565b60006020828403121561339b5761339a613294565b5b60006133a984828501613370565b91505092915050565b600081519050919050565b600082825260208201905092915050565b60005b838110156133ec5780820151818401526020810190506133d1565b838111156133fb576000848401525b50505050565b6000601f19601f8301169050919050565b600061341d826133b2565b61342781856133bd565b93506134378185602086016133ce565b61344081613401565b840191505092915050565b600060208201905081810360008301526134658184613412565b905092915050565b6000819050919050565b6134808161346d565b82525050565b600060208201905061349b6000830184613477565b92915050565b6134aa8161346d565b81146134b557600080fd5b50565b6000813590506134c7816134a1565b92915050565b6000602082840312156134e3576134e2613294565b5b60006134f1848285016134b8565b91505092915050565b600073ffffffffffffffffffffffffffffffffffffffff82169050919050565b6000613525826134fa565b9050919050565b6135358161351a565b82525050565b6000602082019050613550600083018461352c565b92915050565b61355f8161351a565b811461356a57600080fd5b50565b60008135905061357c81613556565b92915050565b6000806040838503121561359957613598613294565b5b60006135a78582860161356d565b92505060206135b8858286016134b8565b9150509250929050565b6000806000606084860312156135db576135da613294565b5b60006135e98682870161356d565b93505060206135fa8682870161356d565b925050604061360b868287016134b8565b9150509250925092565b6000819050919050565b61362881613615565b82525050565b6000602082019050613643600083018461361f565b92915050565b600080fd5b600080fd5b7f4e487b7100000000000000000000000000000000000000000000000000000000600052604160045260246000fd5b61368b82613401565b810181811067ffffffffffffffff821117156136aa576136a9613653565b5b80604052505050565b60006136bd61328a565b90506136c98282613682565b919050565b600067ffffffffffffffff8211156136e9576136e8613653565b5b6136f282613401565b9050602081019050919050565b82818337600083830152505050565b600061372161371c846136ce565b6136b3565b90508281526020810184848401111561373d5761373c61364e565b5b6137488482856136ff565b509392505050565b600082601f83011261376557613764613649565b5b813561377584826020860161370e565b91505092915050565b60006020828403121561379457613793613294565b5b600082013567ffffffffffffffff8111156137b2576137b1613299565b5b6137be84828501613750565b91505092915050565b6000602082840312156137dd576137dc613294565b5b60006137eb8482850161356d565b91505092915050565b6137fd81613615565b811461380857600080fd5b50565b60008135905061381a816137f4565b92915050565b60006020828403121561383657613835613294565b5b60006138448482850161380b565b91505092915050565b6000806040838503121561386457613863613294565b5b6000613872858286016134b8565b92505060206138838582860161356d565b9150509250929050565b600080604083850312156138a4576138a3613294565b5b60006138b28582860161356d565b92505060206138c385828601613370565b9150509250929050565b600067ffffffffffffffff8211156138e8576138e7613653565b5b6138f182613401565b9050602081019050919050565b600061391161390c846138cd565b6136b3565b90508281526020810184848401111561392d5761392c61364e565b5b6139388482856136ff565b509392505050565b600082601f83011261395557613954613649565b5b81356139658482602086016138fe565b91505092915050565b6000806000806080858703121561398857613987613294565b5b60006139968782880161356d565b94505060206139a78782880161356d565b93505060406139b8878288016134b8565b925050606085013567ffffffffffffffff8111156139d9576139d8613299565b5b6139e587828801613940565b91505092959194509250565b600080fd5b600080fd5b60008083601f840112613a1157613a10613649565b5b8235905067ffffffffffffffff811115613a2e57613a2d6139f1565b5b602083019150836020820283011115613a4a57613a496139f6565b5b9250929050565b600080600060408486031215613a6a57613a69613294565b5b6000613a78868287016134b8565b935050602084013567ffffffffffffffff811115613a9957613a98613299565b5b613aa5868287016139fb565b92509250509250925092565b60008060408385031215613ac857613ac7613294565b5b6000613ad68582860161356d565b9250506020613ae78582860161356d565b9150509250929050565b7f4e487b7100000000000000000000000000000000000000000000000000000000600052602260045260246000fd5b60006002820490506001821680613b3857607f821691505b60208210811415613b4c57613b4b613af1565b5b50919050565b7f4e487b7100000000000000000000000000000000000000000000000000000000600052601160045260246000fd5b6000613b8c8261346d565b9150613b978361346d565b9250817fffffffffffffffffffffffffffffffffffffffffffffffffffffffffffffffff0483118215151615613bd057613bcf613b52565b5b828202905092915050565b7f4e487b7100000000000000000000000000000000000000000000000000000000600052601260045260246000fd5b6000613c158261346d565b9150613c208361346d565b925082613c3057613c2f613bdb565b5b828204905092915050565b6000613c468261346d565b9150613c518361346d565b925082821015613c6457613c63613b52565b5b828203905092915050565b600081905092915050565b50565b6000613c8a600083613c6f565b9150613c9582613c7a565b600082019050919050565b6000613cab82613c7d565b9150819050919050565b7f6e65656420746f206d696e74206174206c656173742031204e46540000000000600082015250565b6000613ceb601b836133bd565b9150613cf682613cb5565b602082019050919050565b60006020820190508181036000830152613d1a81613cde565b9050919050565b6000613d2c8261346d565b9150613d378361346d565b9250827fffffffffffffffffffffffffffffffffffffffffffffffffffffffffffffffff03821115613d6c57613d6b613b52565b5b828201905092915050565b7f6d6178204e4654206c696d697420657863656564656400000000000000000000600082015250565b6000613dad6016836133bd565b9150613db882613d77565b602082019050919050565b60006020820190508181036000830152613ddc81613da0565b9050919050565b7f6f6f707320636f6e747261637420697320706175736564000000000000000000600082015250565b6000613e196017836133bd565b9150613e2482613de3565b602082019050919050565b60006020820190508181036000830152613e4881613e0c565b9050919050565b7f53616c65204861736e2774207374617274656420796574000000000000000000600082015250565b6000613e856017836133bd565b9150613e9082613e4f565b602082019050919050565b60006020820190508181036000830152613eb481613e78565b9050919050565b7f6d6178206d696e7420616d6f756e742070657220747820657863656564656400600082015250565b6000613ef1601f836133bd565b9150613efc82613ebb565b602082019050919050565b60006020820190508181036000830152613f2081613ee4565b9050919050565b7f576520536f6c646f757400000000000000000000000000000000000000000000600082015250565b6000613f5d600a836133bd565b9150613f6882613f27565b602082019050919050565b60006020820190508181036000830152613f8c81613f50565b9050919050565b7f204d6178204e4654205065722057616c6c657420657863656564656400000000600082015250565b6000613fc9601c836133bd565b9150613fd482613f93565b602082019050919050565b60006020820190508181036000830152613ff881613fbc565b9050919050565b7f696e73756666696369656e742066756e64730000000000000000000000000000600082015250565b60006140356012836133bd565b915061404082613fff565b602082019050919050565b6000602082019050818103600083015261406481614028565b9050919050565b7f3132204b6e6967687473203a3a205465616d20616c7265616479206d696e746560008201527f6400000000000000000000000000000000000000000000000000000000000000602082015250565b60006140c76021836133bd565b91506140d28261406b565b604082019050919050565b600060208201905081810360008301526140f6816140ba565b9050919050565b7f455243373231414d657461646174613a2055524920717565727920666f72206e60008201527f6f6e6578697374656e7420746f6b656e00000000000000000000000000000000602082015250565b60006141596030836133bd565b9150614164826140fd565b604082019050919050565b600060208201905081810360008301526141888161414c565b9050919050565b600081905092915050565b60006141a5826133b2565b6141af818561418f565b93506141bf8185602086016133ce565b80840191505092915050565b60008190508160005260206000209050919050565b600081546141ed81613b20565b6141f7818661418f565b94506001821660008114614212576001811461422357614256565b60ff19831686528186019350614256565b61422c856141cb565b60005b8381101561424e5781548189015260018201915060208101905061422f565b838801955050505b50505092915050565b600061426b828661419a565b9150614277828561419a565b915061428382846141e0565b9150819050949350505050565b7f776c206d696e74204861736e2774207374617274656420796574000000000000600082015250565b60006142c6601a836133bd565b91506142d182614290565b602082019050919050565b600060208201905081810360008301526142f5816142b9565b9050919050565b60008160601b9050919050565b6000614314826142fc565b9050919050565b600061432682614309565b9050919050565b61433e6143398261351a565b61431b565b82525050565b6000614350828461432d565b60148201915081905092915050565b7f20596f7520617265206e6f7420696e207468652077686974656c697374000000600082015250565b6000614395601d836133bd565b91506143a08261435f565b602082019050919050565b600060208201905081810360008301526143c481614388565b9050919050565b7f4d6178204e4654205065722057616c6c65742065786365656465640000000000600082015250565b6000614401601b836133bd565b915061440c826143cb565b602082019050919050565b60006020820190508181036000830152614430816143f4565b9050919050565b7f6d6178206d696e74207065722054782065786365656465640000000000000000600082015250565b600061446d6018836133bd565b915061447882614437565b602082019050919050565b6000602082019050818103600083015261449c81614460565b9050919050565b7f6e6f7420656e6f75676820657468000000000000000000000000000000000000600082015250565b60006144d9600e836133bd565b91506144e4826144a3565b602082019050919050565b60006020820190508181036000830152614508816144cc565b9050919050565b7f4f776e61626c653a206e6577206f776e657220697320746865207a65726f206160008201527f6464726573730000000000000000000000000000000000000000000000000000602082015250565b600061456b6026836133bd565b91506145768261450f565b604082019050919050565b6000602082019050818103600083015261459a8161455e565b9050919050565b7f4f776e61626c653a2063616c6c6572206973206e6f7420746865206f776e6572600082015250565b60006145d76020836133bd565b91506145e2826145a1565b602082019050919050565b60006020820190508181036000830152614606816145ca565b9050919050565b7f5265656e7472616e637947756172643a207265656e7472616e742063616c6c00600082015250565b6000614643601f836133bd565b915061464e8261460d565b602082019050919050565b6000602082019050818103600083015261467281614636565b9050919050565b600081519050919050565b600082825260208201905092915050565b60006146a082614679565b6146aa8185614684565b93506146ba8185602086016133ce565b6146c381613401565b840191505092915050565b60006080820190506146e3600083018761352c565b6146f0602083018661352c565b6146fd6040830185613477565b818103606083015261470f8184614695565b905095945050505050565b600081519050614729816132ca565b92915050565b60006020828403121561474557614744613294565b5b60006147538482850161471a565b91505092915050565b7f4e487b7100000000000000000000000000000000000000000000000000000000600052603260045260246000fd5b60006147968261346d565b91507fffffffffffffffffffffffffffffffffffffffffffffffffffffffffffffffff8214156147c9576147c8613b52565b5b60018201905091905056fea26469706673582212205bb9d2d64e075e5a1b5a6cd9123ce2290519e1be036b94922cd2be6ce7825c6564736f6c634300080b0033",
  "linkReferences": {},
  "deployedLinkReferences": {}
}